:020000040800F2
:1000000000400120451B0008911B0008911B0008BF
:10001000911B0008911B0008911B000800000000C4
:10002000000000000000000000000000911B00081C
:10003000911B000800000000911B0008911B0008A4
:10004000911B0008911B0008911B0008911B0008E0
:10005000911B0008911B0008251800082D180008A6
:10006000351800083D18000845180008911B0008C5
:10007000911B0008911B0008911B0008911B0008B0
:10008000911B0008911B0008911B0008911B0008A0
:10009000911B0008911B0008911B00084D180008D7
:1000A000911B0008911A0008911B0008911B000881
:1000B000911B0008911B0008911B0008911B000870
:1000C000911B0008911B0008911B0008911B000860
:1000D000911B0008911B0008911B0008911B000850
:1000E00055180008911B0008911B0008911B00087F
:1000F000911B00080000000000000000000000004C
:0C01000000000000000000005FF808F1A3
:10010C0010B5054C237833B9044B13B10448AFF345
:10011C0000800123237010BD280400200000000083
:10012C00A41D000808B5064B1BB106480649AFF3E1
:10013C0000800648036813B1054B03B1984708BD0E
:10014C0000000000A41D00082C040020280400203E
:10015C00000000004BB942B9002908BF002802D0AA
:10016C004FF0FF31084600F03BB882B0EC462DE969
:10017C00005000F01DF8DDF804E002B00CBC704734
:10018C002DE9704F089E14461D468046894600F0A6
:10019C0029F804FB01F3A4FB00AB00FB05329344EC
:1001AC00B8EB0A0869EB0B09C6E90089BDE8708F4A
:1001BC002DE9704F089E14461D468046894600F076
:1001CC0061F900FB05F5A0FB04AB04FB0154A3444F
:1001DC00B8EB0A0869EB0B09C6E90089BDE8708F1A
:1001EC00704700BF00292DE9F00FC0F2A180002458
:1001FC00002BC0F29880154606460F46002B3FD1C7
:10020C008A4258D9B2FA82F34BB1C3F1200201FAF7
:10021C0003F720FA02F29D4000FA03F61743290C6B
:10022C00B7FBF1F201FB1277A8B200FB02F34FEA25
:10023C00164C4CEA0747BB4209D97F1902F1FF3C27
:10024C0080F00581BB4240F20281023A2F44FF1A32
:10025C00B7FBF1F301FB137100FB03F0B6B246EAF6
:10026C000141884208D9491903F1FF3780F0F18028
:10027C00884240F2EE80023B43EA0242002303E054
:10028C008B420AD900231A461046194614B1404233
:10029C0061EB4101BDE8F00F7047B3FA83F8B8F198
:1002AC00000F40F088808B4202D3824200F2E28041
:1002BC0000230122E8E712B90123B3FBF2F5B5FAEA
:1002CC0085F2002A3AD17F1B280C1FFA85FC0123EA
:1002DC00B7FBF0F100FB11770CFB01F24FEA16486B
:1002EC0048EA0747BA4207D97F1901F1FF3802D211
:1002FC00BA4200F2C4804146BF1AB7FBF0F200FBD1
:10030C0012700CFB02FCB6B246EA0040844507D9D9
:10031C00401902F1FF3702D2844500F2AE803A4612
:10032C0042EA0142B0E7E443524263EB430362E723
:10033C00404261EB41014FF0FF3459E79540C2F167
:10034C00200927FA09F126FA09F99740280CB1FB84
:10035C00F0F800FB18111FFA85FC0CFB08F349EAB6
:10036C0007094FEA194747EA01418B4206FA02F6A0
:10037C0008D9491908F1FF327AD28B4278D9A8F101
:10038C0002082944C91AB1FBF0F300FB13170CFB4C
:10039C0003F21FFA89F949EA0747BA4207D97F19CC
:1003AC0003F1FF3160D2BA425ED9023B2F44BF1A2F
:1003BC0043EA08438CE7C8F1200225FA02F103FA5C
:1003CC0008FC27FA02F320FA02F207FA08F741EACE
:1003DC000C0C4FEA1C49B3FBF9F109FB11331FFA62
:1003EC008CFA0AFB01FB17433A0C42EA03439B4588
:1003FC0005FA08F008D913EB0C0301F1FF3235D2E2
:10040C009B4533D902396344CBEB0303B3FBF9F2BD
:10041C0009FB12330AFB02FABFB247EA0347BA459B
:10042C0008D917EB0C0702F1FF331BD2BA4519D9C7
:10043C00023A674442EA0145A5FB0001CAEB0707F3
:10044C008F424FF000030AD305D02A461CE76246C0
:10045C00FDE63B4610E706FA08F68642F5D26A1E20
:10046C00002311E71A46E5E70B46A0E71146CBE758
:10047C00904687E74346424606E7023A50E7023980
:10048C002F4439E72DE9F00F144605460E46002B94
:10049C0043D18A4253D9B2FA82F757B1C7F1200639
:1004AC0020FA06F601FA07F302FA07F400FA07F548
:1004BC001E43210CB6FBF1F201FB1266A0B200FB4D
:1004CC0002F32F0C47EA0646B34209D9361902F15A
:1004DC00FF3780F0FD80B34240F2FA80023A2644A6
:1004EC00F61AB6FBF1F301FB136100FB03F0ADB29E
:1004FC0045EA0141884208D9091903F1FF3680F019
:10050C00E980884240F2E680023B43EA0242002343
:10051C0010461946BDE8F00F70478B424CD8B3FA21
:10052C0083F6002E4FD18B4202D3824200F2DD8043
:10053C00BDE8F00F0023012210461946704712B98E
:10054C000124B4FBF2F4B4FA84F2002A40F0828065
:10055C00091B260CA7B20123B1FBF6F006FB101108
:10056C0007FB00F24FEA154C4CEA01418A4207D9CD
:10057C00091900F1FF3C02D28A4200F2C8806046A1
:10058C00891AB1FBF6F206FB121107FB02F7ADB2AA
:10059C0045EA0145AF4208D92C1902F1FF3180F030
:1005AC009B80A74240F29880023A42EA00421046F1
:1005BC001946BDE8F00F704700231A46104619463D
:1005CC00BDE8F00F7047C6F1200522FA05F703FAD3
:1005DC0006F421FA05F301FA06FB20FA05F53C4373
:1005EC004FEA1448B3FBF8FC08FB1C331FFA84F9E0
:1005FC0009FB0CFA45EA0B0B4FEA1B4545EA034392
:10060C009A4502FA06F204D91B190CF1FF356FD387
:10061C00AC46CAEB0303B3FBF8F508FB153309FB37
:10062C0005F91FFA8BFB4BEA0347B94504D93F196F
:10063C0005F1FF3362D31D4645EA0C4CACFB02239B
:10064C00C9EB07079F424FF000054AD346D06246DC
:10065C002B465DE79440C2F1200921FA09FC914038
:10066C0020FA09F9260CBCFBF6F806FB18CCA7B24D
:10067C0007FB08F349EA01094FEA194141EA0C4C1E
:10068C00634500FA02F509D91CEB040C08F1FF32A2
:10069C003BD2634539D9A8F10208A444C3EB0C0C36
:1006AC00BCFBF6F306FB13C107FB03F21FFA89F937
:1006BC0049EA01418A4207D9091903F1FF3022D2D4
:1006CC008A4220D9023B2144891A43EA084343E772
:1006DC003A4605E7334618E70A4666E7B0409042CB
:1006EC00B5D20CF1FF32002312E7334632460FE746
:1006FC009A458DD9ACF1020C23448AE7B9459AD9B5
:10070C00023D274498E70346DEE79046C6E70238E9
:10071C00214435E700B583B002460B468DF807201F
:10072C008DF80630002001F015F89DF8073063F0C5
:10073C007F03DBB2184601F0AFF89DF8063018467F
:10074C0001F0AAF8012001F005F803B05DF804FBF4
:10075C0000B585B003468DF80730002000F0FAFF95
:10076C009DF8073003F07F03DBB2184601F094F8D4
:10077C00002001F091F803468DF80F30012000F0B5
:10078C00E9FF9DF80F30184605B05DF804FB00BF7B
:10079C0010B584B00091134602468DF807208DF8F1
:1007AC000630002000F0D6FF9DF8073003F07F03E1
:1007BC00DBB2184601F070F800238DF80F300DE015
:1007CC009DF80F30009AD418002001F065F803460C
:1007DC0023709DF80F3001338DF80F309DF80F20EA
:1007EC009DF806309A42EBD3012000F0B3FF04B021
:1007FC0010BD00BF00B583B003468DF80730012053
:10080C00FFF7A6FF0346DBB223F00703DAB29DF82D
:10081C0007301343DBB2DBB201201946FFF77AFF36
:10082C0003B05DF804FB00BF00B583B080238DF8E6
:10083C0007309DF8073043F008038DF807309DF81A
:10084C00073001201946FFF765FF03B05DF804FB84
:10085C0000B583B0614BDB89184600F00DFB0346F5
:10086C008DF8043000238DF8073000238DF8063006
:10087C0000238DF80530594BDB89184600F00AFB34
:10088C000346012B0AD0022B0FD0002B14D19DF85C
:10089C00073043F070038DF807300FE09DF80730F8
:1008AC0063F07F038DF8073008E09DF8073063F0A4
:1008BC006F038DF8073001E001F038F9474BDB8905
:1008CC00184600F0F7FA0346032B27D801A252F87A
:1008DC0023F000BFF1080008FF0800080D0900080C
:1008EC001B0900089DF8073043F002038DF8073010
:1008FC0016E09DF8073043F004038DF807300FE045
:10090C009DF8073043F006038DF8073008E09DF89A
:10091C00073043F008038DF8073001E001F006F9C9
:10092C002E4BDB89184600F0E3FA0346002B10D05F
:10093C009DF8073043F001038DF80730274BDB8916
:10094C00184600F0D5FA0346DBB222201946FFF711
:10095C00E1FE9DF807301D201946FFF7DBFE9DF8E0
:10096C000430013BDBB21B01DBB270338DF8063077
:10097C001A4BDB89184600F0ADFA0346002B05D163
:10098C009DF8063043F004038DF806309DF80630D0
:10099C001E201946FFF7BEFE04238DF805309DF886
:1009AC000430052B03D09DF80430062B0DD10B4BD6
:1009BC00DB89184600F06EFA0346002B05D19DF832
:1009CC00053043F008038DF805309DF805302620DE
:1009DC001946FFF79FFE03B05DF804FB540400209A
:1009EC00F0B583B01849896808464FF00001CB0474
:1009FC0043EA5033C20410461946144A4FF0000320
:100A0C00FFF7A8FB02460B46CDE90023DDE90023E6
:100A1C00160C46EA03461F0CF3B206201946FFF7E4
:100A2C0079FEDDE90023140A44EA03641D0AE3B2EB
:100A3C0007201946FFF76EFE9DF800300820194676
:100A4C00FFF768FE03B0F0BD540400200048E80135
:100A5C0000B583B003468DF80730FFF7E5FE0120A3
:100A6C00FFF776FE0346DBB25BB2002B01DB01F035
:100A7C005DF80120FFF7BEFE9DF80730022B08D170
:100A8C001D200A21FFF746FE1E207021FFF742FEB3
:100A9C0003E0FFF7DDFEFFF7A3FF0C202121FFF79A
:100AAC0039FE23204021FFF735FE274B93F8A83160
:100ABC00002B0BD03320FFF74BFE034623F04003F3
:100ACC00DBB233201946FFF725FE0AE03320FFF78F
:100ADC003FFE034643F04003DBB233201946FFF7D9
:100AEC0019FE194B1B7C1F201946FFF713FE3920EA
:100AFC003421FFF70FFE4020C021FFF70BFE122020
:100B0C00FF21FFF707FE9DF80730104AD35CDB434B
:100B1C00DBB211201946FFF7FDFD002000F0FEFDB1
:100B2C009DF80730002B08D1074B5B68184600F086
:100B3C005DFF0620FFF75EFE02E00520FFF75AFE80
:100B4C0003B05DF804FB00BF54040020F41E000841
:100B5C0010B584B000F0B4FF002000F00DFE00F0E2
:100B6C00EBF903462033184600F040FF022000F05A
:100B7C0003FE00F0E1F90346A333184600F036FFFC
:100B8C000020FFF737FE4220FFF7E2FD03468DF809
:100B9C0007309DF80730122B01D000F0C7FF022060
:100BAC00FFF756FF00BF0120FFF7D2FD034603F00D
:100BBC000703052BF7D1012303932DE000230293A8
:100BCC0024E000BF2C20FFF7C3FD034603F0010314
:100BDC008DF806309DF806402C20FFF7B9FD034632
:100BEC0003F001039C42EDD0334A039B13441B7862
:100BFC005B00DAB29DF806301343DBB2DAB22E4951
:100C0C00039B0B441A70029B01330293029B072B2C
:100C1C00D7DD039B01330393039B0F2BCEDD264BB8
:100C2C0010221A7009200021FFF774FD3B20FFF7FA
:100C3C008FFD034643F04003DBB23B201946FFF720
:100C4C0069FD00BF3B20FFF783FD034603F0200343
:100C5C00002BF7D1194B0093009B1B0CDBB2062029
:100C6C001946FFF757FD009B1B0ADBB207201946FC
:100C7C00FFF750FD009BDBB208201946FFF74AFD39
:100C8C003B20FFF765FD034643F04003DBB23B20FE
:100C9C001946FFF73FFD00BF3B20FFF759FD034608
:100CAC0003F02003002BF7D10020FFF7A3FD00F089
:100CBC0011FF04B010BD00BF4404002000A1BC33E0
:100CCC0000B585B003468DF8073000F035F9039078
:100CDC000120FFF73DFD0346DBB25BB2002B75DA5A
:100CEC001220FFF735FD03468DF80B309DF80B30C5
:100CFC0003F00803002B04D0039B5A1E5A4B1A60B6
:100D0C005BE09DF80B3003F04003002B4CD0564BAE
:100D1C00DB89184600F0BEF80346002B0CD1524B71
:100D2C00DB89184600F0A8F803461A464F4B33F8F7
:100D3C001230039AD31A03934B4B039A5A601D201B
:100D4C00FFF706FD034603F00403002B04D022201A
:100D5C00FFF7FEFC034603E01320FFF7F9FC034604
:100D6C00414A82F847311020FFF7F2FC03460D2070
:100D7C001946FFF7CFFC3C4B93F8473100203C4918
:100D8C001A46FFF705FD1920FFF7E2FC0346DAB21D
:100D9C00354B5A731A20FFF7DBFC03463D3BDBB2A5
:100DAC00DAB2314B1A7308E09DF80B305BB2002BB2
:100DBC0003DA2D4B002283F847211120FF21FFF786
:100DCC00A9FC1220FF21FFF7A5FC41E03E20FFF714
:100DDC00BFFC03468DF80A303F20FFF7B9FC0346F1
:100DEC008DF809309DF8093003F00803002B03D06F
:100DFC001D4B039A1A602BE09DF8093003F0040395
:100E0C00002B19D0184B039A5A603220FFF7A0FC24
:100E1C0003461A46144B83F84721134B93F847317A
:100E2C00002013491A46FFF7B3FC0F4B00225A73EC
:100E3C000D4B00221A730BE09DF80A3003F00403EB
:100E4C00002B04D0084B002283F8472100E0FEE77A
:100E5C000020FFF7CFFC044BDB690648194600F075
:100E6C008BF805B05DF804FB54040020F81E000854
:100E7C009C0500206804002082B00346ADF80630C3
:100E8C00BDF80630DBB203F00703DBB2184602B044
:100E9C00704700BF82B00346ADF80630BDF806308F
:100EAC00DB089BB2DBB203F00303DBB2184602B0E3
:100EBC00704700BF82B00346ADF80630BDF806306F
:100ECC005B099BB2DBB203F00303DBB2184602B042
:100EDC00704700BF82B00346ADF80630BDF806304F
:100EEC00DB099BB203F00103184602B0704700BF48
:100EFC0082B00346ADF80630BDF806301B0A9BB233
:100F0C00DBB2184602B07047024B4022A3F8AC206B
:100F1C00704700BF5404002008B506480021082281
:100F2C0000F074FE00F0EEFDFFF712FEFFF7ECFF91
:100F3C0008BD00BF0006002008B500F013FD0346F5
:100F4C00184608BD82B0019000910DE0019B1A6813
:100F5C00009B9A4205D1009B1A68019B1A600123E1
:100F6C0007E0019B1B680193019B1B68002BEDD1D3
:100F7C000023184602B0704700B585B0019000916F
:100F8C0000F09EFD0D480199FFF7DCFF019B009AD4
:100F9C009A60019B00221A60084B039302E0039BAA
:100FAC001B680393039B1B68002BF8D1039B019ACE
:100FBC001A6000F08FFD05B05DF804FB04060020FC
:100FCC0000B587B003900291019200F079FD1548AD
:100FDC000399FFF7B7FF039B029A5A60039B019A90
:100FEC009A60039B00221A600E4B05930EE0059B42
:100FFC001B685A68029BD31A002B04DD059B1A68E8
:10100C00039B1A6006E0059B1B680593059B1B68F8
:10101C00002BECD1059B039A1A6000F05BFD07B026
:10102C005DF804FB0006002000B583B0002301939B
:10103C0000F046FD164B5B68002B07D0144B5B6829
:10104C000193019B1A68124B5A6016E0104B1B68F7
:10105C00002B10D00E4B1B685B68184600F0D4FCBC
:10106C000346002B07D00A4B1B680193019B1A689F
:10107C00074B1A6001E000F03BFD00F02BFD019BDB
:10108C00002B04D0019B9B6801989847CEE7CDE7D5
:10109C000006002008B5154B144A126842F4807201
:1010AC001A60124A114B9968114B0B4093600F4A0E
:1010BC000E4B1B6823F0885323F0011313600B4B6A
:1010CC000A4A126822F480221A60084B074A926876
:1010DC0022F47D029A60054B0022DA6000F00CF8D5
:1010EC00044B4FF000629A6008BD00BF003802400C
:1010FC000CC0FF8800ED00E082B0002301930023B8
:10110C0000933E4B3D4A126842F001021A603B4B81
:10111C001B6803F002030093009B002B03D1019B7F
:10112C00B3F5A04FF3D1354B1B6803F00203002B32
:10113C0002D00123009301E000230093009B012BBC
:10114C005AD12F4B2E4A126842F004021A602C4BD3
:10115C002B4A126842F002021A60294B284A126884
:10116C0042F001021A60254B244A526A42F0805226
:10117C005A62244B4FF400621A6000BF214B5B682B
:10118C0003F01003002BF9D11C4B1C4A92689A6097
:10119C001A4B1A4A92689A60184B184A92689A60CD
:1011AC00164B164A926822F47D029A60134B134A2E
:1011BC00926842F408029A60104B104A126842F08E
:1011CC0080721A6000BF0D4B1B6803F00073002B7C
:1011DC00F9D00A4B094A926822F003029A60074B35
:1011EC00064A926842F003029A6000BF034B9B6868
:1011FC0003F00C030C2BF9D102B0704700380240FD
:10120C00003C02400070004084B0019013460A4636
:10121C008DF80320ADF800309DF803305B008DF89D
:10122C000F309DF80330DB08DBB21A469DF8033013
:10123C00DB08DBB21946019B083153F821109DF8ED
:10124C00033003F007039B000F2000FA03F3DB438A
:10125C001940BDF8003003F00F009DF8033003F087
:10126C0007039B0000FA03F31943019B083243F870
:10127C002210019B1A689DF80F30032101FA03F329
:10128C00DB431A40BDF800301B099BB203F003018D
:10129C009DF80F3001FA03F31A43019B1A60019B6E
:1012AC009A689DF80F30032101FA03F3DB431A40CF
:1012BC00BDF800309B099BB203F003019DF80F3081
:1012CC0001FA03F31A43019B9A60019B9B889BB222
:1012DC009AB29DF80330012101FA03F39BB2DB4370
:1012EC009BB213409AB2BDF800301B0A9BB203F0BC
:1012FC0001019DF8033001FA03F39BB213439BB237
:10130C009AB2019B9A80019BDA689DF80F300321F9
:10131C0001FA03F3DB431A40BDF800305B0A9BB2C1
:10132C0003F003019DF80F3001FA03F31A43019BFC
:10133C00DA6004B0704700BF82B0019013460A46D1
:10134C008DF803208DF80230019B9B8A9BB29AB2D8
:10135C009DF80330012101FA03F39BB2DB439BB2EE
:10136C0013409AB29DF8023003F001019DF803304E
:10137C0001FA03F39BB213439BB29AB2019B9A827C
:10138C0002B0704710B487B0134602468DF80720A0
:10139C000A468DF806208DF805304A4B494A126AE8
:1013AC0042F001021A629DF8063003F003039B0021
:1013BC000593059B0F2202FA03F30493424B9DF80D
:1013CC0006209208D2B240499DF806008008C0B2AF
:1013DC00023051F820000499C94308409DF8074099
:1013EC00059904FA01F10143023243F822109DF8E9
:1013FC000630012202FA03F30393344B334A91680B
:10140C00039AD2430A409A60304B304AD168039A0F
:10141C00D2430A40DA609DF8053003F03803282BDC
:10142C0004D0302B10D0202B07D01AE0274B274AA2
:10143C009168039A0A439A6013E0244B234AD168BB
:10144C00039A0A43DA600CE0204B204A9168039A15
:10145C000A439A601D4B1D4AD168039A0A43DA600D
:10146C0000BF1A4B194A1168039A0A431A609DF877
:10147C000630042B04D89DF806300633DBB206E0A8
:10148C009DF80630092B01D8172300E028238DF88E
:10149C000B300F4A9DF80B301344702283F8002355
:1014AC000B4B9DF80B205209D2B29DF80B1001F09A
:1014BC001F01012000FA01F143F8221007B05DF87A
:1014CC00044B70470038024000000140000401400A
:1014DC0000E100E008B5104808214FF43472FFF722
:1014EC0093FE002000F020F80C4B0C4A126A42F4D8
:1014FC0080421A620848092140F2E722FFF784FE75
:10150C00074B40F215121A81054B42F208029A81E0
:10151C00044800F069F808BD0000024000380240A1
:10152C0000380140BC1D000800B583B00190019B40
:10153C00DBB2044808211A46FFF7FEFE03B05DF843
:10154C0004FB00BF0000024082B003468DF8073058
:10155C0000BF074B1B889BB203F08003002BF8D015
:10156C00034B9DF8072092B29A8002B0704700BFDF
:10157C000038014000B583B003468DF807309DF864
:10158C0007301B09DBB2084AD35C1846FFF7DCFFB7
:10159C009DF8073003F00F03034AD35C1846FFF79E
:1015AC00D3FF03B05DF804FBEC1D000800B585B05B
:1015BC00019018238DF80F300EE09DF90F30019A31
:1015CC0022FA03F3DBB21846FFF7D4FF9DF80F3075
:1015DC00083BDBB28DF80F309DF90F30002BECDAA5
:1015EC0005B05DF804FB00BF00B583B0019006E0C8
:1015FC00019B5A1C01921B781846FFF7A5FF019B13
:10160C001B78002BF4D103B05DF804FB00B583B05C
:10161C00019000910198FFF7E7FF0098FFF7C6FFD4
:10162C000D20FFF791FF0A20FFF78EFF03B05DF846
:10163C0004FB00BF00B583B0354B354AD26942F08C
:10164C000702DA6100238DF807302BE09DF8073094
:10165C00304AD35C03F5801380339B021A469DF805
:10166C00073001332B49CB5C104619464FF43472CA
:10167C00FFF7CAFD9DF80730264AD35C03F58013AB
:10168C0080339B021A469DF8073001332149CB5C0D
:10169C00104619460022FFF74FFE9DF80730023323
:1016AC008DF807309DF80730032BCFD900238DF828
:1016BC00063026E09DF80630174AD35C03F58013FC
:1016CC0080339B021A469DF8063001331249CB5CDD
:1016DC00104619464FF4E072FFF796FD9DF8063060
:1016EC000D4AD25C9DF8063001330B49CB5C104699
:1016FC0019462822FFF746FE9DF8063002338DF876
:10170C0006309DF80630052BD4D903B05DF804FBE8
:10171C0000380240081F00080C1F000800B583B0F9
:10172C0003468DF807309DF80730012B05D09DF846
:10173C000730002B01D000F0F9F99DF80730044870
:10174C0001211A46FFF7F8FD03B05DF804FB00BF5A
:10175C000008024000B583B003468DF807309DF8B1
:10176C000730044806211A46FFF7E6FD03B05DF882
:10177C0004FB00BF0004024000B583B003468DF8A3
:10178C0007309DF80730002B03D09DF80730012B54
:10179C000DD10B4800214FF43472FFF735FD9DF845
:1017AC000730074800211A46FFF7C6FD05E004483C
:1017BC0000214FF4E072FFF727FD03B05DF804FB46
:1017CC000000024008B5134B5B6903F48063002BE7
:1017DC0006D0104B4FF480625A610020FFF770FA6C
:1017EC000C4B5B6903F00803002B05D0094B082256
:1017FC005A610120FFF764FA064B5B6903F0200382
:10180C00002B05D0034B20225A610220FFF758FA17
:10181C0008BD00BF0004014008B5FFF7D3FF08BDA9
:10182C0008B5FFF7CFFF08BD08B5FFF7CBFF08BD24
:10183C0008B5FFF7C7FF08BD08B5FFF7C3FF08BD24
:10184C0008B5FFF7BFFF08BD08B5FFF7BBFF08BD24
:10185C0008B50E4B0D4A126A42F480521A620C48BB
:10186C00052140F2E542FFF7CFFC0948062140F282
:10187C00E542FFF7C9FC0648072140F2E542FFF7B5
:10188C00C3FC044B4FF451721A8008BD003802405F
:10189C00000002400030014082B003468DF8073052
:1018AC00094B9DF8072092B29A8100BF064B1B8909
:1018BC009BB203F00103002BF8D0034B9B899BB226
:1018CC00DBB2184602B0704700300140214B214A70
:1018DC00126842F480721A601F4B1F4A526B42F41A
:1018EC0080725A6300BF1C4B5B6B03F40073002BBC
:1018FC00F9D0194B184A126A42F004021A62164BBC
:10190C00154AD26A42F00402DA62134B124A526947
:10191C0042F004025A61104B0F4A526922F0040241
:10192C005A610E4B4FF480421A810D4B702283F892
:10193C0019230B4B4FF000721A60084B074A92891F
:10194C0092B242F0010292B29A81044B01221A80A7
:10195C00704700BF00700040003802400008014092
:10196C0000E100E000B583B000F0AAF80F4B5B6813
:10197C0001930F4B5B6AADF802300D4B1B8A9BB287
:10198C0003F00103002B06D0094B5B6AADF8023063
:10199C00019B0133019300F09DF8019B1A04BDF8E3
:1019AC0002301343184603B05DF804FB0806002010
:1019BC000008014000B585B00190FFF7D3FF0390FC
:1019CC00019A039BD31A0293029B002B01DC002388
:1019DC0008E0029B1B14002B02D04FF6FF7301E0B2
:1019EC00029B9BB2184605B05DF804FB00B583B0B2
:1019FC00019000BF0198FFF7DDFF0346002BF9D1E2
:101A0C0003B05DF804FB00BF00B585B001901C4B22
:101A1C001B4A128A92B222F0040292B21A820198E4
:101A2C00FFF7C8FF0346ADF80E30BDF80E30042B9F
:101A3C0009D8134B124A928992B222F0040292B244
:101A4C009A81012317E00E4B0D4A516ABDF80E2006
:101A5C000A449A630A4B0A4A928992B242F00402EF
:101A6C0092B29A81064B064A128C92B242F0100244
:101A7C0092B21A840023184605B05DF804FB00BF2F
:101A8C00000801400C4B1B8A9BB203F00103002B96
:101A9C0004D00A4B5B685A1C084B5A60064B1B8AD5
:101AAC009BB203F00403002B01D0034B9B89024B28
:101ABC0000221A82704700BF00080140080600206F
:101ACC0072B6034B1B685A1C014B1A60704700BF5F
:101ADC0008060020054B1B685A1E044B1A60034B6A
:101AEC001B68002B00D162B6704700BF08060020AF
:101AFC00034B034A126842F001021A6030BF704770
:101B0C000070004008B508480021082200F07EF85B
:101B1C00FFF7D6FFFFF78EFDFFF79AFEFFF7D6FE15
:101B2C00FFF7D8FF08BD00BF0806002008B5FFF777
:101B3C00C7FFFFF7DDFFFEE7002100F004B80C4BF8
:101B4C005B58435004310B480B4B42189A42FFF43C
:101B5C00F6AF0A4A00F003B8002342F8043B084BE6
:101B6C009A42FFF4F9AFFFF795FA00F03BF8704793
:101B7C00301F00080000002028040020280400204A
:101B8C0014060020FFF7FEBF00B583B0019011488A
:101B9C00FFF72AFD104B1B6810481946FFF736FD5E
:101BAC000D4B1B685A1C0C4B1A600B4B1B6803F03B
:101BBC0001031846FFF7B8FCFFF7BEF9034603F51F
:101BCC00004301981946064AFFF7FAF903B05DF88D
:101BDC0004FB00BFDC1E000810060020EC1E0008F1
:101BEC00951B000800B585B0FFF796F9FFF772FC5E
:101BFC0001AB18460449FFF7BFF9FFF715FA0023AC
:101C0C00184605B05DF804FB951B0008F0B484077A
:101C1C0043D0541E002A3ED0CDB2034603E0621ED0
:101C2C00002C38D0144603F8015B9A07F7D1032C2B
:101C3C002AD9CDB245EA05250F2C45EA054515D91B
:101C4C00A4F110073F0903F1100606EB07161A461C
:101C5C00156055609560D5601032B242F8D104F031
:101C6C000F040137032C03EB07130DD91E46224634
:101C7C00043A032A46F8045BFAD8221F22F0030226
:101C8C000432134404F003042CB1C9B21C4403F80D
:101C9C00011BA342FBD1F0BC704714460346C6E7B8
:101CAC00024B13B1024800F005B870470000000069
:101CBC00CD1C0008014600200246034600F018B86F
:101CCC0038B5094D094C641BA41018BF05EB8405ED
:101CDC0005D0013C55F8043D9847002CF9D1BDE8DE
:101CEC00384000F05FB800BF2C1F0008301F000800
:101CFC00F0B5274C85B026680746D6F84841002C2D
:101D0C0040D065681F2D1EDD224818B94FF0FF30FA
:101D1C0005B0F0BD4FF4C870039102920193AFF37C
:101D2C00008003990446029A019B0028EED0D6F855
:101D3C0048510020256060600546C6F84841C4F84B
:101D4C008801C4F88C013FB96B1C0020023563601C
:101D5C0044F8251005B0F0BD0126AE4004EB85001B
:101D6C00C0F88820D4F88821022F42EA0602C4F871
:101D7C008821C0F80831E7D1D4F88C311E43C4F85F
:101D8C008C61E1E706F5A674C6F84841B9E700BFD7
:101D9C00181F000800000000F8B500BFF8BC08BC14
:101DAC009E467047F8B500BFF8BC08BC9E4670470D
:101DBC000D0A3D3D3D3D3D3D3D3D3D3D3D3D3D3DAA
:101DCC002044454255472053544152544544203DEC
:101DDC003D3D3D3D3D3D3D3D3D3D3D3D3D0D0A00C7
:101DEC003031323334353637383941424344454645
:101DFC000000000045565F554E4B4E4F574E0000AD
:101E0C005343414E5F54494D454F5554000000001B
:101E1C00424541434F4E5F464F554E440000000033
:101E2C00424541434F4E5F4D4953534544000000DA
:101E3C00424541434F4E5F545241434B4544000091
:101E4C004A4F494E494E47004A4F494E45440000BF
:101E5C0052465531000000004A4F494E5F464149F9
:101E6C004C45440052454A4F494E5F4641494C450A
:101E7C00440000005458434F4D504C45544500000D
:101E8C004C4F53545F5453594E43000052455345E5
:101E9C00540000005258434F4D504C4554450000DF
:101EAC004C494E4B5F444541440000004C494E4B5D
:101EBC005F414C49564500005343414E5F464F55D8
:101ECC004E44000045565F54585354415254000040
:101EDC0048656C6C6F20576F726C64210D0A0000A2
:101EEC00636E74203D200000C04000000000000024
:101EFC0036006A00E600BE01FE0300000106020186
:101F0C00000A01030105000043000000000000204E
:081F1C00D4E2FF7F0100000088
:081F2400AD1C000831010008AA
:041F2C000D0100089B
:101F300000000000EC02002054030020BC0300203D
:101F40000000000000000000000000000000000091
:101F50000000000000000000000000000000000081
:101F600000000000141F0008000000000000000036
:101F70000000000000000000000000000000000061
:101F80000000000000000000000000000000000051
:101F90000000000000000000000000000000000041
:101FA0000000000000000000000000000000000031
:101FB0000000000000000000000000000000000021
:101FC0000000000000000000000000000000000011
:101FD0000000000000000000010000000000000000
:101FE0000E33CDAB34126DE6ECDE05000B000000C5
:101FF00000000000000000000000000000000000E1
:1020000000000000000000000000000000000000D0
:1020100000000000000000000000000000000000C0
:1020200000000000000000000000000000000000B0
:0400000508001B458F
:00000001FF
